S01100006D79786D65676133322E73726563B6
S11300000C94FE000C941B010C941B010C941B011A
S11300100C941B010C941B010C941B010C941B01EC
S11300200C941B010C941B010C941B010C941B01DC
S11300300C941B010C941B010C941B010C941B01CC
S11300400C941B010C941B010C941B010C941B01BC
S11300500C941B010C941B010C941B010C941B01AC
S11300600C941B010C941B010C941B010C941B019C
S11300700C941B010C941B010C941B010C941B018C
S11300800C941B010C941B010C941B010C941B017C
S11300900C941B010C941B010C941B010C941B016C
S11300A00C941B010C941B010C941B010C941B015C
S11300B00C941B010C941B010C941B010C941B014C
S11300C00C941B010C941B010C941B010C941B013C
S11300D00C941B010C941B010C941B010C941B012C
S11300E00C941B010C941B010C941B010C941B011C
S11300F00C941B010C941B010C941B010C941B010C
S11301000C941B010C941B010C941B010C941B01FB
S11301100C941B010C941B010C941B010C941B01EB
S11301200C941B010C941B010C941B010C941B01DB
S11301300C941B010C941B010C941B010C941B01CB
S11301400C941B010C941B010C941B010C941B01BB
S11301500C941B010C941B010C941B010C941B01AB
S11301600C941B010C941B010C941B010C941B019B
S11301700C941B010C941B010C941B010C941B018B
S11301800C941B010C941B010C941B010C941B017B
S11301900C941B010C941B010C941B010C941B016B
S11301A00C941B010C941B010C941B010C941B015B
S11301B00C941B010C941B010C941B010C941B014B
S11301C00C941B010C941B010C941B010C941B013B
S11301D00C941B010C941B010C941B010C941B012B
S11301E00C941B010C941B010C941B010C941B011B
S11301F00C941B010C941B010C941B0111241FBEB5
S1130200CFEFCDBFDFE2DEBF20E2A6E0B0E201C067
S11302101D92AC30B207E1F710E2A0E0B0E2E2EBED
S1130220F5E002C005900D92A630B107D9F70E94FF
S113023064010C94D7020C9400008BEC8093520060
S1130240809150008860809350008091510083FF1A
S1130250FCCF88ED84BF83E080934000089588E05C
S1130260809361068093650688E18093A40983E006
S11302708093A50989E18093A60980E28093A70968
S113028008959091A10995FFFCCF8093A00908954A
S1130290CF93C62F0E9441018C2FCF910C94410122
S11302A08BE48093850410928004E1E8F4E080817B
S11302B0886F80831092820410928304E4E8F4E04F
S11302C080818D6C8083089586E090E00E94B60161
S11302D080930620909307200E941D010E942F0105
S11302E060E080E00E9448018FB780688FBF0E9461
S11302F0500160E081E00E944801809182068160A3
S113030080938206C8E0D0E81FEF80918806813090
S1130310E1F3E0910620F0910720C083E0910620EC
S1130320F0910720D183E0910620F09107201283F9
S1130330608180E10E944801E0910620F09107204D
S1130340618181E10E944801E0910620F09107203B
S1130350628182E10E9448012FEF83ED90E32150F6
S113036080409040E1F700C00000CFCF0F931F936F
S1130370CF93DF938230910510F482E090E0E09116
S11303800A20F0910B2020E030E0A0E0B0E03097AC
S113039019F1408151810281138148175907C8F02E
S11303A08417950769F4109731F012960C931297FD
S11303B013961C9327C000930A2010930B2022C08D
S11303C02115310519F04217530718F49A01BD019C
S11303D0EF01DF01F801DBCF21153105F9F0281B0E
S11303E0390B2430310580F48A819B8161157105B4
S11303F021F0FB018283938304C080930A209093AD
S11304000B20FE01329644C0FE01E20FF31F8193DC
S1130410919322503109288339833AC020910820CE
S113042030910920232B41F42091022030910320A4
S1130430209308203093092020910020309101203E
S11304402115310541F42DB73EB740910420509158
S11304500520241B350BE0910820F0910920E217B8
S1130460F307A0F42E1B3F0B2817390778F0AC01D3
S11304704E5F5F4F2417350748F04E0F5F1F4093C0
S11304800820509309208193919302C0E0E0F0E0AA
S1130490CF01DF91CF911F910F910895CF93DF93F7
S11304A0009709F481C0FC01329712821382A09153
S11304B00A20B0910B20109781F420813181820FA2
S11304C0931F20910820309109202817390751F5EE
S11304D0E0930820F093092067C0ED0120E030E0AC
S11304E0CE17DF0740F44A815B819E014115510517
S11304F0F1F0EA01F5CFC283D38340815181840FA7
S1130500951FC817D90759F488819981840F951FBD
S11305100296808391838A819B81828393832115B0
S1130520310529F4E0930A20F0930B203DC0E90142
S1130530EA83FB8349915991C40FD51FEC17FD073A
S113054061F480819181840F951F0296E90188836B
S11305509983828193818A839B83E0E0F0E0129601
S11305608D919C911397009719F0FD01DC01F7CF51
S11305708D919C9111979D012E5F3F4F820F931F88
S113058020910820309109202817390769F4309701
S113059029F410920A2010920B2002C012821382B6
S11305A0A0930820B0930920DF91CF910895F89487
S10505B0FFCF77
S10905B200000C202000F3
S9030000FC
