S01100006D79786D65676133322E73726563B6
S11300000C94FE000C9410010C9410010C9410013B
S11300100C9410010C9410010C9410010C94100118
S11300200C9410010C9410010C9410010C94100108
S11300300C9410010C9410010C9410010C941001F8
S11300400C9410010C9410010C9410010C941001E8
S11300500C9410010C9410010C9410010C941001D8
S11300600C9410010C9410010C9410010C941001C8
S11300700C9410010C9410010C9410010C941001B8
S11300800C9410010C9410010C9410010C941001A8
S11300900C9410010C9410010C9410010C94100198
S11300A00C9410010C9410010C9410010C94100188
S11300B00C9410010C9410010C9410010C94100178
S11300C00C9410010C9410010C9410010C94100168
S11300D00C9410010C9410010C9410010C94100158
S11300E00C9410010C9410010C9410010C94100148
S11300F00C9410010C9410010C9410010C94100138
S11301000C9410010C9410010C9410010C94100127
S11301100C9410010C9410010C9410010C94100117
S11301200C9410010C9410010C9410010C94100107
S11301300C9410010C9410010C9410010C941001F7
S11301400C9410010C9410010C9410010C941001E7
S11301500C9410010C9410010C9410010C941001D7
S11301600C9410010C9410010C9410010C941001C7
S11301700C9410010C9410010C9410010C941001B7
S11301800C9410010C9410010C9410010C941001A7
S11301900C9410010C9410010C9410010C94100197
S11301A00C9410010C9410010C9410010C94100187
S11301B00C9410010C9410010C9410010C94100177
S11301C00C9410010C9410010C9410010C94100167
S11301D00C9410010C9410010C9410010C94100157
S11301E00C9410010C9410010C9410010C94100147
S11301F00C9410010C9410010C94100111241FBED6
S1130200CFEFCDBFDFE2DEBF20E2A0E0B0E201C06D
S11302101D92A030B207E1F70E9456010C946301CD
S11302200C9400008BEC8093520080915000886005
S1130230809350008091510083FFFCCF88ED84BFF0
S113024083E080934000089588E080936106809362
S1130250650688E18093A40983E08093A50989E178
S11302608093A60980E28093A70908959091A1093B
S113027095FFFCCF8093A00908950E94360189E080
S11302800C9436018BE48093850410928004E1E899
S1130290F4E08081886F808310928204109283043A
S11302A0E4E8F4E080818D6C808308950E9412015B
S11302B00E94240180E00E943D018FB780688FBFB7
S10D02C00E944201FFCFF894FFCF23
S9030000FC
